{
  "contractName": "Vault",
  "abi": [
    {
      "anonymous": false,
      "inputs": [
        {
          "indexed": true,
          "internalType": "address",
          "name": "user",
          "type": "address"
        },
        {
          "indexed": false,
          "internalType": "uint256",
          "name": "time",
          "type": "uint256"
        }
      ],
      "name": "RecordUpdated",
      "type": "event"
    },
    {
      "inputs": [
        {
          "internalType": "string",
          "name": "_data",
          "type": "string"
        }
      ],
      "name": "setRecord",
      "outputs": [],
      "stateMutability": "nonpayable",
      "type": "function"
    },
    {
      "inputs": [],
      "name": "getRecord",
      "outputs": [
        {
          "internalType": "string",
          "name": "",
          "type": "string"
        },
        {
          "internalType": "uint256",
          "name": "",
          "type": "uint256"
        }
      ],
      "stateMutability": "view",
      "type": "function",
      "constant": true
    },
    {
      "inputs": [],
      "name": "hasRecord",
      "outputs": [
        {
          "internalType": "bool",
          "name": "",
          "type": "bool"
        }
      ],
      "stateMutability": "view",
      "type": "function",
      "constant": true
    }
  ],
  "bytecode": "0x608060405234801561000f575f80fd5b506107ea8061001d5f395ff3fe608060405234801561000f575f80fd5b506004361061003f575f3560e01c80633e0a009914610043578063f0f0ed6c1461005f578063f18ad6fb1461007d575b5f80fd5b61005d60048036038101906100589190610357565b61009c565b005b6100676101a3565b60405161007491906103bc565b60405180910390f35b6100856101f6565b604051610093929190610477565b60405180910390f35b604051806040016040528083838080601f0160208091040260200160405190810160405280939291908181526020018383808284375f81840152601f19601f820116905080830192505050505050508152602001428152505f803373ffffffffffffffffffffffffffffffffffffffff1673ffffffffffffffffffffffffffffffffffffffff1681526020019081526020015f205f820151815f01908161014391906106cc565b50602082015181600101559050503373ffffffffffffffffffffffffffffffffffffffff167f375fc384aa96ea3af6165789b46e2a2f85dfae3f2920712be76da170eeb8663442604051610197919061079b565b60405180910390a25050565b5f805f803373ffffffffffffffffffffffffffffffffffffffff1673ffffffffffffffffffffffffffffffffffffffff1681526020019081526020015f205f0180546101ee906104ff565b905011905090565b60605f805f803373ffffffffffffffffffffffffffffffffffffffff1673ffffffffffffffffffffffffffffffffffffffff1681526020019081526020015f206040518060400160405290815f82018054610250906104ff565b80601f016020809104026020016040519081016040528092919081815260200182805461027c906104ff565b80156102c75780601f1061029e576101008083540402835291602001916102c7565b820191905f5260205f20905b8154815290600101906020018083116102aa57829003601f168201915b505050505081526020016001820154815250509050805f0151816020015192509250509091565b5f80fd5b5f80fd5b5f80fd5b5f80fd5b5f80fd5b5f8083601f840112610317576103166102f6565b5b8235905067ffffffffffffffff811115610334576103336102fa565b5b6020830191508360018202830111156103505761034f6102fe565b5b9250929050565b5f806020838503121561036d5761036c6102ee565b5b5f83013567ffffffffffffffff81111561038a576103896102f2565b5b61039685828601610302565b92509250509250929050565b5f8115159050919050565b6103b6816103a2565b82525050565b5f6020820190506103cf5f8301846103ad565b92915050565b5f81519050919050565b5f82825260208201905092915050565b5f5b8381101561040c5780820151818401526020810190506103f1565b5f8484015250505050565b5f601f19601f8301169050919050565b5f610431826103d5565b61043b81856103df565b935061044b8185602086016103ef565b61045481610417565b840191505092915050565b5f819050919050565b6104718161045f565b82525050565b5f6040820190508181035f83015261048f8185610427565b905061049e6020830184610468565b9392505050565b7f4e487b71000000000000000000000000000000000000000000000000000000005f52604160045260245ffd5b7f4e487b71000000000000000000000000000000000000000000000000000000005f52602260045260245ffd5b5f600282049050600182168061051657607f821691505b602082108103610529576105286104d2565b5b50919050565b5f819050815f5260205f209050919050565b5f6020601f8301049050919050565b5f82821b905092915050565b5f6008830261058b7fffffffffffffffffffffffffffffffffffffffffffffffffffffffffffffffff82610550565b6105958683610550565b95508019841693508086168417925050509392505050565b5f819050919050565b5f6105d06105cb6105c68461045f565b6105ad565b61045f565b9050919050565b5f819050919050565b6105e9836105b6565b6105fd6105f5826105d7565b84845461055c565b825550505050565b5f90565b610611610605565b61061c8184846105e0565b505050565b5b8181101561063f576106345f82610609565b600181019050610622565b5050565b601f821115610684576106558161052f565b61065e84610541565b8101602085101561066d578190505b61068161067985610541565b830182610621565b50505b505050565b5f82821c905092915050565b5f6106a45f1984600802610689565b1980831691505092915050565b5f6106bc8383610695565b9150826002028217905092915050565b6106d5826103d5565b67ffffffffffffffff8111156106ee576106ed6104a5565b5b6106f882546104ff565b610703828285610643565b5f60209050601f831160018114610734575f8415610722578287015190505b61072c85826106b1565b865550610793565b601f1984166107428661052f565b5f5b8281101561076957848901518255600182019150602085019450602081019050610744565b868310156107865784890151610782601f891682610695565b8355505b6001600288020188555050505b505050505050565b5f6020820190506107ae5f830184610468565b9291505056fea264697066735822122022df9da97d4c00ff4974a450923704c53c9e7de0452e17e6ad2493aa83040a8a64736f6c63430008150033",
  "immutableReferences": {},
  "source": "// SPDX-License-Identifier: MIT\npragma solidity ^0.8.0;\n\ncontract Vault {\n\n    struct Record {\n        string data;      // Encrypted data\n        uint256 updated; // Last update time\n    }\n\n    mapping(address => Record) private records;\n\n    event RecordUpdated(address indexed user, uint256 time);\n\n    // Store / Update encrypted data\n    function setRecord(string calldata _data) external {\n        records[msg.sender] = Record(_data, block.timestamp);\n        emit RecordUpdated(msg.sender, block.timestamp);\n    }\n\n    // Read your own data\n    function getRecord() external view returns (string memory, uint256) {\n        Record memory r = records[msg.sender];\n        return (r.data, r.updated);\n    }\n\n    // Check if record exists\n    function hasRecord() external view returns (bool) {\n        return bytes(records[msg.sender].data).length > 0;\n    }\n}\n",
  "sourcePath": "/home/ark/REK/blockchain/contracts/Vault.sol",
  "compiler": {
    "name": "solc",
    "version": "0.8.21+commit.d9974bed.Emscripten.clang"
  },
  "schemaVersion": "3.4.16",
  "updatedAt": "2026-02-09T05:04:49.610Z",
  "networkType": "ethereum",
  "devdoc": {
    "kind": "dev",
    "methods": {},
    "version": 1
  },
  "userdoc": {
    "kind": "user",
    "methods": {},
    "version": 1
  }
}